{
  "address": "0xDc51e8C24DcED55335Ff7871c7F8cf0bC9a64dda",
  "abi": [
    {
      "anonymous": false,
      "inputs": [
        {
          "indexed": true,
          "internalType": "address",
          "name": "owner",
          "type": "address"
        },
        {
          "indexed": true,
          "internalType": "uint256",
          "name": "id",
          "type": "uint256"
        }
      ],
      "name": "ItemAdded",
      "type": "event"
    },
    {
      "anonymous": false,
      "inputs": [
        {
          "indexed": true,
          "internalType": "address",
          "name": "owner",
          "type": "address"
        },
        {
          "indexed": true,
          "internalType": "uint256",
          "name": "id",
          "type": "uint256"
        }
      ],
      "name": "ItemOwnershipTransferred",
      "type": "event"
    },
    {
      "inputs": [
        {
          "internalType": "string",
          "name": "name",
          "type": "string"
        },
        {
          "internalType": "string",
          "name": "description",
          "type": "string"
        },
        {
          "internalType": "string",
          "name": "media",
          "type": "string"
        },
        {
          "internalType": "string",
          "name": "location",
          "type": "string"
        },
        {
          "internalType": "uint256",
          "name": "rentPricePerDay",
          "type": "uint256"
        },
        {
          "internalType": "uint256",
          "name": "buyPrice",
          "type": "uint256"
        }
      ],
      "name": "addItem",
      "outputs": [],
      "stateMutability": "nonpayable",
      "type": "function"
    },
    {
      "inputs": [
        {
          "internalType": "uint256",
          "name": "id",
          "type": "uint256"
        }
      ],
      "name": "buyItem",
      "outputs": [],
      "stateMutability": "payable",
      "type": "function"
    },
    {
      "inputs": [],
      "name": "getItems",
      "outputs": [
        {
          "components": [
            {
              "internalType": "uint256",
              "name": "id",
              "type": "uint256"
            },
            {
              "internalType": "string",
              "name": "name",
              "type": "string"
            },
            {
              "internalType": "string",
              "name": "description",
              "type": "string"
            },
            {
              "internalType": "string",
              "name": "media",
              "type": "string"
            },
            {
              "internalType": "string",
              "name": "location",
              "type": "string"
            },
            {
              "internalType": "uint256",
              "name": "buyPrice",
              "type": "uint256"
            },
            {
              "internalType": "uint256",
              "name": "rentPricePerDay",
              "type": "uint256"
            },
            {
              "internalType": "address",
              "name": "owner",
              "type": "address"
            },
            {
              "internalType": "uint256",
              "name": "validTill",
              "type": "uint256"
            },
            {
              "internalType": "address",
              "name": "renter",
              "type": "address"
            }
          ],
          "internalType": "struct InstiShop.Item[]",
          "name": "",
          "type": "tuple[]"
        }
      ],
      "stateMutability": "view",
      "type": "function"
    },
    {
      "inputs": [
        {
          "internalType": "address",
          "name": "owner",
          "type": "address"
        }
      ],
      "name": "getItemsByOwner",
      "outputs": [
        {
          "components": [
            {
              "internalType": "uint256",
              "name": "id",
              "type": "uint256"
            },
            {
              "internalType": "string",
              "name": "name",
              "type": "string"
            },
            {
              "internalType": "string",
              "name": "description",
              "type": "string"
            },
            {
              "internalType": "string",
              "name": "media",
              "type": "string"
            },
            {
              "internalType": "string",
              "name": "location",
              "type": "string"
            },
            {
              "internalType": "uint256",
              "name": "buyPrice",
              "type": "uint256"
            },
            {
              "internalType": "uint256",
              "name": "rentPricePerDay",
              "type": "uint256"
            },
            {
              "internalType": "address",
              "name": "owner",
              "type": "address"
            },
            {
              "internalType": "uint256",
              "name": "validTill",
              "type": "uint256"
            },
            {
              "internalType": "address",
              "name": "renter",
              "type": "address"
            }
          ],
          "internalType": "struct InstiShop.Item[]",
          "name": "ownerItems",
          "type": "tuple[]"
        }
      ],
      "stateMutability": "view",
      "type": "function"
    },
    {
      "inputs": [
        {
          "internalType": "address",
          "name": "renter",
          "type": "address"
        }
      ],
      "name": "getItemsByRenter",
      "outputs": [
        {
          "components": [
            {
              "internalType": "uint256",
              "name": "id",
              "type": "uint256"
            },
            {
              "internalType": "string",
              "name": "name",
              "type": "string"
            },
            {
              "internalType": "string",
              "name": "description",
              "type": "string"
            },
            {
              "internalType": "string",
              "name": "media",
              "type": "string"
            },
            {
              "internalType": "string",
              "name": "location",
              "type": "string"
            },
            {
              "internalType": "uint256",
              "name": "buyPrice",
              "type": "uint256"
            },
            {
              "internalType": "uint256",
              "name": "rentPricePerDay",
              "type": "uint256"
            },
            {
              "internalType": "address",
              "name": "owner",
              "type": "address"
            },
            {
              "internalType": "uint256",
              "name": "validTill",
              "type": "uint256"
            },
            {
              "internalType": "address",
              "name": "renter",
              "type": "address"
            }
          ],
          "internalType": "struct InstiShop.Item[]",
          "name": "renterItems",
          "type": "tuple[]"
        }
      ],
      "stateMutability": "view",
      "type": "function"
    },
    {
      "inputs": [
        {
          "internalType": "uint256",
          "name": "",
          "type": "uint256"
        }
      ],
      "name": "items",
      "outputs": [
        {
          "internalType": "uint256",
          "name": "id",
          "type": "uint256"
        },
        {
          "internalType": "string",
          "name": "name",
          "type": "string"
        },
        {
          "internalType": "string",
          "name": "description",
          "type": "string"
        },
        {
          "internalType": "string",
          "name": "media",
          "type": "string"
        },
        {
          "internalType": "string",
          "name": "location",
          "type": "string"
        },
        {
          "internalType": "uint256",
          "name": "buyPrice",
          "type": "uint256"
        },
        {
          "internalType": "uint256",
          "name": "rentPricePerDay",
          "type": "uint256"
        },
        {
          "internalType": "address",
          "name": "owner",
          "type": "address"
        },
        {
          "internalType": "uint256",
          "name": "validTill",
          "type": "uint256"
        },
        {
          "internalType": "address",
          "name": "renter",
          "type": "address"
        }
      ],
      "stateMutability": "view",
      "type": "function"
    },
    {
      "inputs": [
        {
          "internalType": "uint256",
          "name": "id",
          "type": "uint256"
        },
        {
          "internalType": "uint256",
          "name": "daysToRent",
          "type": "uint256"
        }
      ],
      "name": "rentItem",
      "outputs": [],
      "stateMutability": "payable",
      "type": "function"
    },
    {
      "inputs": [
        {
          "internalType": "uint256",
          "name": "id",
          "type": "uint256"
        }
      ],
      "name": "returnItem",
      "outputs": [],
      "stateMutability": "nonpayable",
      "type": "function"
    }
  ],
  "transactionHash": "0x6edf44de04bb9b60111849fd5c75261643a2e1ba95ad1a4be795f5b17d3fc175",
  "args": [],
  "numDeployments": 3,
  "solcInputHash": "63368eea2d9ae1d8e9568ea6550a1031",
  "bytecode": "0x608060405234801561001057600080fd5b50612bf7806100206000396000f3fe60806040526004361061007b5760003560e01c8063a1fc26e41161004e578063a1fc26e41461014e578063a29e4e5d14610177578063bfb231d214610193578063e7fb74c7146101d95761007b565b8063223ed1dd146100805780632c67a8e5146100a957806335f70bdf146100e6578063410d59cc14610123575b600080fd5b34801561008c57600080fd5b506100a760048036038101906100a29190611d24565b6101f5565b005b3480156100b557600080fd5b506100d060048036038101906100cb9190611daf565b6103f5565b6040516100dd919061203b565b60405180910390f35b3480156100f257600080fd5b5061010d60048036038101906101089190611daf565b61091c565b60405161011a919061203b565b60405180910390f35b34801561012f57600080fd5b50610138610e43565b604051610145919061203b565b60405180910390f35b34801561015a57600080fd5b5061017560048036038101906101709190612192565b6111bf565b005b610191600480360381019061018c919061228f565b6113cb565b005b34801561019f57600080fd5b506101ba60048036038101906101b59190611d24565b6116c8565b6040516101d09a99989796959493929190612337565b60405180910390f35b6101f360048036038101906101ee9190611d24565b61198c565b005b80600080549050811061023d576040517f08c379a00000000000000000000000000000000000000000000000000000000081526004016102349061243b565b60405180910390fd5b60008083815481106102525761025161245b565b5b90600052602060002090600a020190503373ffffffffffffffffffffffffffffffffffffffff168160090160009054906101000a900473ffffffffffffffffffffffffffffffffffffffff1673ffffffffffffffffffffffffffffffffffffffff16146102f4576040517f08c379a00000000000000000000000000000000000000000000000000000000081526004016102eb906124fc565b60405180910390fd5b8060080154421161033a576040517f08c379a00000000000000000000000000000000000000000000000000000000081526004016103319061258e565b60405180910390fd5b60008160090160006101000a81548173ffffffffffffffffffffffffffffffffffffffff021916908373ffffffffffffffffffffffffffffffffffffffff16021790555060008160080181905550828160070160009054906101000a900473ffffffffffffffffffffffffffffffffffffffff1673ffffffffffffffffffffffffffffffffffffffff167fc8744dc359efab323114cc04306cb8c8500c36df04e00367250b5976cd964b9160405160405180910390a3505050565b60606000808054905067ffffffffffffffff81111561041757610416612067565b5b60405190808252806020026020018201604052801561045057816020015b61043d611c5b565b8152602001906001900390816104355790505b5090506000805b600080549050811015610866578473ffffffffffffffffffffffffffffffffffffffff166000828154811061048f5761048e61245b565b5b90600052602060002090600a020160070160009054906101000a900473ffffffffffffffffffffffffffffffffffffffff1673ffffffffffffffffffffffffffffffffffffffff160361085357600081815481106104f0576104ef61245b565b5b90600052602060002090600a02016040518061014001604052908160008201548152602001600182018054610524906125dd565b80601f0160208091040260200160405190810160405280929190818152602001828054610550906125dd565b801561059d5780601f106105725761010080835404028352916020019161059d565b820191906000526020600020905b81548152906001019060200180831161058057829003601f168201915b505050505081526020016002820180546105b6906125dd565b80601f01602080910402602001604051908101604052809291908181526020018280546105e2906125dd565b801561062f5780601f106106045761010080835404028352916020019161062f565b820191906000526020600020905b81548152906001019060200180831161061257829003601f168201915b50505050508152602001600382018054610648906125dd565b80601f0160208091040260200160405190810160405280929190818152602001828054610674906125dd565b80156106c15780601f10610696576101008083540402835291602001916106c1565b820191906000526020600020905b8154815290600101906020018083116106a457829003601f168201915b505050505081526020016004820180546106da906125dd565b80601f0160208091040260200160405190810160405280929190818152602001828054610706906125dd565b80156107535780601f1061072857610100808354040283529160200191610753565b820191906000526020600020905b81548152906001019060200180831161073657829003601f168201915b5050505050815260200160058201548152602001600682015481526020016007820160009054906101000a900473ffffffffffffffffffffffffffffffffffffffff1673ffffffffffffffffffffffffffffffffffffffff1673ffffffffffffffffffffffffffffffffffffffff168152602001600882015481526020016009820160009054906101000a900473ffffffffffffffffffffffffffffffffffffffff1673ffffffffffffffffffffffffffffffffffffffff1673ffffffffffffffffffffffffffffffffffffffff16815250508383815181106108395761083861245b565b5b6020026020010181905250818061084f9061263d565b9250505b808061085e9061263d565b915050610457565b508067ffffffffffffffff81111561088157610880612067565b5b6040519080825280602002602001820160405280156108ba57816020015b6108a7611c5b565b81526020019060019003908161089f5790505b50925060005b81811015610914578381815181106108db576108da61245b565b5b60200260200101518482815181106108f6576108f561245b565b5b6020026020010181905250808061090c9061263d565b9150506108c0565b505050919050565b60606000808054905067ffffffffffffffff81111561093e5761093d612067565b5b60405190808252806020026020018201604052801561097757816020015b610964611c5b565b81526020019060019003908161095c5790505b5090506000805b600080549050811015610d8d578473ffffffffffffffffffffffffffffffffffffffff16600082815481106109b6576109b561245b565b5b90600052602060002090600a020160090160009054906101000a900473ffffffffffffffffffffffffffffffffffffffff1673ffffffffffffffffffffffffffffffffffffffff1603610d7a5760008181548110610a1757610a1661245b565b5b90600052602060002090600a02016040518061014001604052908160008201548152602001600182018054610a4b906125dd565b80601f0160208091040260200160405190810160405280929190818152602001828054610a77906125dd565b8015610ac45780601f10610a9957610100808354040283529160200191610ac4565b820191906000526020600020905b815481529060010190602001808311610aa757829003601f168201915b50505050508152602001600282018054610add906125dd565b80601f0160208091040260200160405190810160405280929190818152602001828054610b09906125dd565b8015610b565780601f10610b2b57610100808354040283529160200191610b56565b820191906000526020600020905b815481529060010190602001808311610b3957829003601f168201915b50505050508152602001600382018054610b6f906125dd565b80601f0160208091040260200160405190810160405280929190818152602001828054610b9b906125dd565b8015610be85780601f10610bbd57610100808354040283529160200191610be8565b820191906000526020600020905b815481529060010190602001808311610bcb57829003601f168201915b50505050508152602001600482018054610c01906125dd565b80601f0160208091040260200160405190810160405280929190818152602001828054610c2d906125dd565b8015610c7a5780601f10610c4f57610100808354040283529160200191610c7a565b820191906000526020600020905b815481529060010190602001808311610c5d57829003601f168201915b5050505050815260200160058201548152602001600682015481526020016007820160009054906101000a900473ffffffffffffffffffffffffffffffffffffffff1673ffffffffffffffffffffffffffffffffffffffff1673ffffffffffffffffffffffffffffffffffffffff168152602001600882015481526020016009820160009054906101000a900473ffffffffffffffffffffffffffffffffffffffff1673ffffffffffffffffffffffffffffffffffffffff1673ffffffffffffffffffffffffffffffffffffffff1681525050838381518110610d6057610d5f61245b565b5b60200260200101819052508180610d769061263d565b9250505b8080610d859061263d565b91505061097e565b508067ffffffffffffffff811115610da857610da7612067565b5b604051908082528060200260200182016040528015610de157816020015b610dce611c5b565b815260200190600190039081610dc65790505b50925060005b81811015610e3b57838181518110610e0257610e0161245b565b5b6020026020010151848281518110610e1d57610e1c61245b565b5b60200260200101819052508080610e339061263d565b915050610de7565b505050919050565b60606000805480602002602001604051908101604052809291908181526020016000905b828210156111b657838290600052602060002090600a02016040518061014001604052908160008201548152602001600182018054610ea5906125dd565b80601f0160208091040260200160405190810160405280929190818152602001828054610ed1906125dd565b8015610f1e5780601f10610ef357610100808354040283529160200191610f1e565b820191906000526020600020905b815481529060010190602001808311610f0157829003601f168201915b50505050508152602001600282018054610f37906125dd565b80601f0160208091040260200160405190810160405280929190818152602001828054610f63906125dd565b8015610fb05780601f10610f8557610100808354040283529160200191610fb0565b820191906000526020600020905b815481529060010190602001808311610f9357829003601f168201915b50505050508152602001600382018054610fc9906125dd565b80601f0160208091040260200160405190810160405280929190818152602001828054610ff5906125dd565b80156110425780601f1061101757610100808354040283529160200191611042565b820191906000526020600020905b81548152906001019060200180831161102557829003601f168201915b5050505050815260200160048201805461105b906125dd565b80601f0160208091040260200160405190810160405280929190818152602001828054611087906125dd565b80156110d45780601f106110a9576101008083540402835291602001916110d4565b820191906000526020600020905b8154815290600101906020018083116110b757829003601f168201915b5050505050815260200160058201548152602001600682015481526020016007820160009054906101000a900473ffffffffffffffffffffffffffffffffffffffff1673ffffffffffffffffffffffffffffffffffffffff1673ffffffffffffffffffffffffffffffffffffffff168152602001600882015481526020016009820160009054906101000a900473ffffffffffffffffffffffffffffffffffffffff1673ffffffffffffffffffffffffffffffffffffffff1673ffffffffffffffffffffffffffffffffffffffff168152505081526020019060010190610e67565b50505050905090565b600060405180610140016040528060008054905081526020018881526020018781526020018681526020018581526020018381526020018481526020013373ffffffffffffffffffffffffffffffffffffffff16815260200160008152602001600073ffffffffffffffffffffffffffffffffffffffff16815250905060008190806001815401808255809150506001900390600052602060002090600a02016000909190919091506000820151816000015560208201518160010190816112879190612831565b50604082015181600201908161129d9190612831565b5060608201518160030190816112b39190612831565b5060808201518160040190816112c99190612831565b5060a0820151816005015560c0820151816006015560e08201518160070160006101000a81548173ffffffffffffffffffffffffffffffffffffffff021916908373ffffffffffffffffffffffffffffffffffffffff16021790555061010082015181600801556101208201518160090160006101000a81548173ffffffffffffffffffffffffffffffffffffffff021916908373ffffffffffffffffffffffffffffffffffffffff160217905550505080600001513373ffffffffffffffffffffffffffffffffffffffff167fbb93286bf5aa4db648045b04d0566e215c1df5d898c5f576bc6cb5ce6a1860d160405160405180910390a350505050505050565b816000805490508110611413576040517f08c379a000000000000000000000000000000000000000000000000000000000815260040161140a9061243b565b60405180910390fd5b60008084815481106114285761142761245b565b5b90600052602060002090600a020190503373ffffffffffffffffffffffffffffffffffffffff168160070160009054906101000a900473ffffffffffffffffffffffffffffffffffffffff1673ffffffffffffffffffffffffffffffffffffffff16036114ca576040517f08c379a00000000000000000000000000000000000000000000000000000000081526004016114c190612975565b60405180910390fd5b600073ffffffffffffffffffffffffffffffffffffffff168160090160009054906101000a900473ffffffffffffffffffffffffffffffffffffffff1673ffffffffffffffffffffffffffffffffffffffff161461155d576040517f08c379a000000000000000000000000000000000000000000000000000000000815260040161155490612a07565b60405180910390fd5b82816006015461156d9190612a27565b34146115ae576040517f08c379a00000000000000000000000000000000000000000000000000000000081526004016115a590612adb565b60405180910390fd5b338160090160006101000a81548173ffffffffffffffffffffffffffffffffffffffff021916908373ffffffffffffffffffffffffffffffffffffffff16021790555062015180836116009190612a27565b4261160b9190612afb565b81600801819055508060070160009054906101000a900473ffffffffffffffffffffffffffffffffffffffff1673ffffffffffffffffffffffffffffffffffffffff166108fc349081150290604051600060405180830381858888f1935050505015801561167d573d6000803e3d6000fd5b50833373ffffffffffffffffffffffffffffffffffffffff167fc8744dc359efab323114cc04306cb8c8500c36df04e00367250b5976cd964b9160405160405180910390a350505050565b600081815481106116d857600080fd5b90600052602060002090600a0201600091509050806000015490806001018054611701906125dd565b80601f016020809104026020016040519081016040528092919081815260200182805461172d906125dd565b801561177a5780601f1061174f5761010080835404028352916020019161177a565b820191906000526020600020905b81548152906001019060200180831161175d57829003601f168201915b50505050509080600201805461178f906125dd565b80601f01602080910402602001604051908101604052809291908181526020018280546117bb906125dd565b80156118085780601f106117dd57610100808354040283529160200191611808565b820191906000526020600020905b8154815290600101906020018083116117eb57829003601f168201915b50505050509080600301805461181d906125dd565b80601f0160208091040260200160405190810160405280929190818152602001828054611849906125dd565b80156118965780601f1061186b57610100808354040283529160200191611896565b820191906000526020600020905b81548152906001019060200180831161187957829003601f168201915b5050505050908060040180546118ab906125dd565b80601f01602080910402602001604051908101604052809291908181526020018280546118d7906125dd565b80156119245780601f106118f957610100808354040283529160200191611924565b820191906000526020600020905b81548152906001019060200180831161190757829003601f168201915b5050505050908060050154908060060154908060070160009054906101000a900473ffffffffffffffffffffffffffffffffffffffff16908060080154908060090160009054906101000a900473ffffffffffffffffffffffffffffffffffffffff1690508a565b8060008054905081106119d4576040517f08c379a00000000000000000000000000000000000000000000000000000000081526004016119cb9061243b565b60405180910390fd5b60008083815481106119e9576119e861245b565b5b90600052602060002090600a020190503373ffffffffffffffffffffffffffffffffffffffff168160070160009054906101000a900473ffffffffffffffffffffffffffffffffffffffff1673ffffffffffffffffffffffffffffffffffffffff1603611a8b576040517f08c379a0000000000000000000000000000000000000000000000000000000008152600401611a8290612ba1565b60405180910390fd5b600073ffffffffffffffffffffffffffffffffffffffff168160090160009054906101000a900473ffffffffffffffffffffffffffffffffffffffff1673ffffffffffffffffffffffffffffffffffffffff1614611b1e576040517f08c379a0000000000000000000000000000000000000000000000000000000008152600401611b1590612a07565b60405180910390fd5b80600501543414611b64576040517f08c379a0000000000000000000000000000000000000000000000000000000008152600401611b5b90612adb565b60405180910390fd5b338160070160006101000a81548173ffffffffffffffffffffffffffffffffffffffff021916908373ffffffffffffffffffffffffffffffffffffffff1602179055508060070160009054906101000a900473ffffffffffffffffffffffffffffffffffffffff1673ffffffffffffffffffffffffffffffffffffffff166108fc349081150290604051600060405180830381858888f19350505050158015611c11573d6000803e3d6000fd5b50823373ffffffffffffffffffffffffffffffffffffffff167fc8744dc359efab323114cc04306cb8c8500c36df04e00367250b5976cd964b9160405160405180910390a3505050565b60405180610140016040528060008152602001606081526020016060815260200160608152602001606081526020016000815260200160008152602001600073ffffffffffffffffffffffffffffffffffffffff16815260200160008152602001600073ffffffffffffffffffffffffffffffffffffffff1681525090565b6000604051905090565b600080fd5b600080fd5b6000819050919050565b611d0181611cee565b8114611d0c57600080fd5b50565b600081359050611d1e81611cf8565b92915050565b600060208284031215611d3a57611d39611ce4565b5b6000611d4884828501611d0f565b91505092915050565b600073ffffffffffffffffffffffffffffffffffffffff82169050919050565b6000611d7c82611d51565b9050919050565b611d8c81611d71565b8114611d9757600080fd5b50565b600081359050611da981611d83565b92915050565b600060208284031215611dc557611dc4611ce4565b5b6000611dd384828501611d9a565b91505092915050565b600081519050919050565b600082825260208201905092915050565b6000819050602082019050919050565b611e1181611cee565b82525050565b600081519050919050565b600082825260208201905092915050565b60005b83811015611e51578082015181840152602081019050611e36565b60008484015250505050565b6000601f19601f8301169050919050565b6000611e7982611e17565b611e838185611e22565b9350611e93818560208601611e33565b611e9c81611e5d565b840191505092915050565b611eb081611d71565b82525050565b600061014083016000830151611ecf6000860182611e08565b5060208301518482036020860152611ee78282611e6e565b91505060408301518482036040860152611f018282611e6e565b91505060608301518482036060860152611f1b8282611e6e565b91505060808301518482036080860152611f358282611e6e565b91505060a0830151611f4a60a0860182611e08565b5060c0830151611f5d60c0860182611e08565b5060e0830151611f7060e0860182611ea7565b50610100830151611f85610100860182611e08565b50610120830151611f9a610120860182611ea7565b508091505092915050565b6000611fb18383611eb6565b905092915050565b6000602082019050919050565b6000611fd182611ddc565b611fdb8185611de7565b935083602082028501611fed85611df8565b8060005b85811015612029578484038952815161200a8582611fa5565b945061201583611fb9565b925060208a01995050600181019050611ff1565b50829750879550505050505092915050565b600060208201905081810360008301526120558184611fc6565b905092915050565b600080fd5b600080fd5b7f4e487b7100000000000000000000000000000000000000000000000000000000600052604160045260246000fd5b61209f82611e5d565b810181811067ffffffffffffffff821117156120be576120bd612067565b5b80604052505050565b60006120d1611cda565b90506120dd8282612096565b919050565b600067ffffffffffffffff8211156120fd576120fc612067565b5b61210682611e5d565b9050602081019050919050565b82818337600083830152505050565b6000612135612130846120e2565b6120c7565b90508281526020810184848401111561215157612150612062565b5b61215c848285612113565b509392505050565b600082601f8301126121795761217861205d565b5b8135612189848260208601612122565b91505092915050565b60008060008060008060c087890312156121af576121ae611ce4565b5b600087013567ffffffffffffffff8111156121cd576121cc611ce9565b5b6121d989828a01612164565b965050602087013567ffffffffffffffff8111156121fa576121f9611ce9565b5b61220689828a01612164565b955050604087013567ffffffffffffffff81111561222757612226611ce9565b5b61223389828a01612164565b945050606087013567ffffffffffffffff81111561225457612253611ce9565b5b61226089828a01612164565b935050608061227189828a01611d0f565b92505060a061228289828a01611d0f565b9150509295509295509295565b600080604083850312156122a6576122a5611ce4565b5b60006122b485828601611d0f565b92505060206122c585828601611d0f565b9150509250929050565b6122d881611cee565b82525050565b600082825260208201905092915050565b60006122fa82611e17565b61230481856122de565b9350612314818560208601611e33565b61231d81611e5d565b840191505092915050565b61233181611d71565b82525050565b60006101408201905061234d600083018d6122cf565b818103602083015261235f818c6122ef565b90508181036040830152612373818b6122ef565b90508181036060830152612387818a6122ef565b9050818103608083015261239b81896122ef565b90506123aa60a08301886122cf565b6123b760c08301876122cf565b6123c460e0830186612328565b6123d26101008301856122cf565b6123e0610120830184612328565b9b9a5050505050505050505050565b7f496e73746953686f703a204974656d20646f6573206e6f742065786973740000600082015250565b6000612425601e836122de565b9150612430826123ef565b602082019050919050565b6000602082019050818103600083015261245481612418565b9050919050565b7f4e487b7100000000000000000000000000000000000000000000000000000000600052603260045260246000fd5b7f496e73746953686f703a20596f752063616e6e6f742072657475726e20616e2060008201527f6974656d20796f7520646f206e6f74206f776e00000000000000000000000000602082015250565b60006124e66033836122de565b91506124f18261248a565b604082019050919050565b60006020820190508181036000830152612515816124d9565b9050919050565b7f496e73746953686f703a204974656d206973206e6f742079657420647565206660008201527f6f722072657475726e0000000000000000000000000000000000000000000000602082015250565b60006125786029836122de565b91506125838261251c565b604082019050919050565b600060208201905081810360008301526125a78161256b565b9050919050565b7f4e487b7100000000000000000000000000000000000000000000000000000000600052602260045260246000fd5b600060028204905060018216806125f557607f821691505b602082108103612608576126076125ae565b5b50919050565b7f4e487b7100000000000000000000000000000000000000000000000000000000600052601160045260246000fd5b600061264882611cee565b91507fffffffffffffffffffffffffffffffffffffffffffffffffffffffffffffffff820361267a5761267961260e565b5b600182019050919050565b60008190508160005260206000209050919050565b60006020601f8301049050919050565b600082821b905092915050565b6000600883026126e77fffffffffffffffffffffffffffffffffffffffffffffffffffffffffffffffff826126aa565b6126f186836126aa565b95508019841693508086168417925050509392505050565b6000819050919050565b600061272e61272961272484611cee565b612709565b611cee565b9050919050565b6000819050919050565b61274883612713565b61275c61275482612735565b8484546126b7565b825550505050565b600090565b612771612764565b61277c81848461273f565b505050565b5b818110156127a057612795600082612769565b600181019050612782565b5050565b601f8211156127e5576127b681612685565b6127bf8461269a565b810160208510156127ce578190505b6127e26127da8561269a565b830182612781565b50505b505050565b600082821c905092915050565b6000612808600019846008026127ea565b1980831691505092915050565b600061282183836127f7565b9150826002028217905092915050565b61283a82611e17565b67ffffffffffffffff81111561285357612852612067565b5b61285d82546125dd565b6128688282856127a4565b600060209050601f83116001811461289b5760008415612889578287015190505b6128938582612815565b8655506128fb565b601f1984166128a986612685565b60005b828110156128d1578489015182556001820191506020850194506020810190506128ac565b868310156128ee57848901516128ea601f8916826127f7565b8355505b6001600288020188555050505b505050505050565b7f496e73746953686f703a20596f752063616e6e6f742072656e7420796f75722060008201527f6f776e206974656d000000000000000000000000000000000000000000000000602082015250565b600061295f6028836122de565b915061296a82612903565b604082019050919050565b6000602082019050818103600083015261298e81612952565b9050919050565b7f496e73746953686f703a204974656d20697320616c72656164792072656e746560008201527f6400000000000000000000000000000000000000000000000000000000000000602082015250565b60006129f16021836122de565b91506129fc82612995565b604082019050919050565b60006020820190508181036000830152612a20816129e4565b9050919050565b6000612a3282611cee565b9150612a3d83611cee565b9250828202612a4b81611cee565b91508282048414831517612a6257612a6161260e565b5b5092915050565b7f496e73746953686f703a20496e636f7272656374207061796d656e7420616d6f60008201527f756e740000000000000000000000000000000000000000000000000000000000602082015250565b6000612ac56023836122de565b9150612ad082612a69565b604082019050919050565b60006020820190508181036000830152612af481612ab8565b9050919050565b6000612b0682611cee565b9150612b1183611cee565b9250828201905080821115612b2957612b2861260e565b5b92915050565b7f496e73746953686f703a20596f752063616e6e6f742062757920796f7572206f60008201527f776e206974656d00000000000000000000000000000000000000000000000000602082015250565b6000612b8b6027836122de565b9150612b9682612b2f565b604082019050919050565b60006020820190508181036000830152612bba81612b7e565b905091905056fea26469706673582212204208fdd134145b7c17f952d2f189cf35b80faa9587f23fb007f2c3ca8b0a396c64736f6c63430008110033",
  "devdoc": {
    "kind": "dev",
    "methods": {},
    "version": 1
  },
  "userdoc": {
    "kind": "user",
    "methods": {},
    "version": 1
  },
  "storageLayout": {
    "storage": [
      {
        "astId": 26,
        "contract": "contracts/InstiShop.sol:InstiShop",
        "label": "items",
        "offset": 0,
        "slot": "0",
        "type": "t_array(t_struct(Item)22_storage)dyn_storage"
      }
    ],
    "types": {
      "t_address": {
        "encoding": "inplace",
        "label": "address",
        "numberOfBytes": "20"
      },
      "t_array(t_struct(Item)22_storage)dyn_storage": {
        "base": "t_struct(Item)22_storage",
        "encoding": "dynamic_array",
        "label": "struct InstiShop.Item[]",
        "numberOfBytes": "32"
      },
      "t_string_storage": {
        "encoding": "bytes",
        "label": "string",
        "numberOfBytes": "32"
      },
      "t_struct(Item)22_storage": {
        "encoding": "inplace",
        "label": "struct InstiShop.Item",
        "members": [
          {
            "astId": 3,
            "contract": "contracts/InstiShop.sol:InstiShop",
            "label": "id",
            "offset": 0,
            "slot": "0",
            "type": "t_uint256"
          },
          {
            "astId": 5,
            "contract": "contracts/InstiShop.sol:InstiShop",
            "label": "name",
            "offset": 0,
            "slot": "1",
            "type": "t_string_storage"
          },
          {
            "astId": 7,
            "contract": "contracts/InstiShop.sol:InstiShop",
            "label": "description",
            "offset": 0,
            "slot": "2",
            "type": "t_string_storage"
          },
          {
            "astId": 9,
            "contract": "contracts/InstiShop.sol:InstiShop",
            "label": "media",
            "offset": 0,
            "slot": "3",
            "type": "t_string_storage"
          },
          {
            "astId": 11,
            "contract": "contracts/InstiShop.sol:InstiShop",
            "label": "location",
            "offset": 0,
            "slot": "4",
            "type": "t_string_storage"
          },
          {
            "astId": 13,
            "contract": "contracts/InstiShop.sol:InstiShop",
            "label": "buyPrice",
            "offset": 0,
            "slot": "5",
            "type": "t_uint256"
          },
          {
            "astId": 15,
            "contract": "contracts/InstiShop.sol:InstiShop",
            "label": "rentPricePerDay",
            "offset": 0,
            "slot": "6",
            "type": "t_uint256"
          },
          {
            "astId": 17,
            "contract": "contracts/InstiShop.sol:InstiShop",
            "label": "owner",
            "offset": 0,
            "slot": "7",
            "type": "t_address"
          },
          {
            "astId": 19,
            "contract": "contracts/InstiShop.sol:InstiShop",
            "label": "validTill",
            "offset": 0,
            "slot": "8",
            "type": "t_uint256"
          },
          {
            "astId": 21,
            "contract": "contracts/InstiShop.sol:InstiShop",
            "label": "renter",
            "offset": 0,
            "slot": "9",
            "type": "t_address"
          }
        ],
        "numberOfBytes": "320"
      },
      "t_uint256": {
        "encoding": "inplace",
        "label": "uint256",
        "numberOfBytes": "32"
      }
    }
  }
}